:1000000001308A00E02900000A108A100A118207D4
:1000100028340C34013406348C25701DA01264166B
:10002000A025691DA01264054B323A10253200004C
:10003000393084008313000803192C280130F8009C
:10004000F701F70B2128F80B20284A30F700F70BAF
:1000500027282A28800B1E280800400EF039F700B8
:100060000F300605770486000000061437280610B6
:1000700008000608F700060E0F39F800080083167E
:10008000061086100611831286100F30831606059F
:10009000F03886008312061500000614000039208F
:1000A0007808C00006100000061400003920780807
:1000B000BF0006100F308316060586008312400E1F
:1000C000F700F030F70577083F04F8007808BF0024
:1000D000BF1B45283D1C86103D18861400000611E4
:1000E000000006103E0EBF000F30BF053F08C000E5
:1000F0002D203E080F39BF00C0002D2008000F3012
:1001000083160605860006108610061183128610D7
:10011000061106100F30B90018200130B200320865
:10012000033C031C9B280330C0002D200530B90080
:100130001820B20A8F280230C0002D200530B900E7
:100140001820B2013208033C031CAF2832080420F7
:10015000B300BD013308BE003F20B20AA2288A11B5
:100160000A12002AF701F801340803103518F707BE
:10017000F70CF80CB518F707F70CF80C3519F7075A
:10018000F70CF80CB519F707F70CF80C351AF70748
:10019000F70CF80CB51AF707F70CF80C351BF70736
:1001A000F70CF80CB51BF707F70CF80C08003A0B26
:1001B000DA28DD284030BB00DE28BB0101303902DF
:1001C000BB073B088038BC00BD013C08BE003F2097
:1001D00008003808073A0319F7280B3A0319FC28D6
:1001E000063A03190429023A03190A290F29013092
:1001F000B900BA00D7201429BD010130BE003F204C
:100200000230B900182014290130B9000230BA00B8
:10021000D7201429BD011030BE003F201429013021
:10022000BD003808BE003F2008000B08B3008B1348
:10023000831603178C170C140000000003184729BD
:1002400083120C087F390313B40003170D0803133E
:10025000B50003170F080313B6003408B800E920EF
:10026000350803178D000313360803178F00831614
:100270008C170C140000000083120313B20B4129E9
:100280004429831603174729662983160317831207
:100290000C0D0E0D7F390313B40003170D08031363
:1002A000B50003170F080313B6003408B800E9209F
:1002B000350803178D000313360803178F008D0AC6
:1002C00003198F0A03100313B20B1829B31B8B17E2
:1002D00008003908F8013802031871293808F700B6
:1002E0007D29F7010830BA00B80DF70D39087702FB
:1002F0000318F700F80DBA0B742908002030331EDC
:100300003030B4003208F700B21F8E29F709F70A1F
:100310007708B2002D30B400B31733143208B80098
:100320006430B90069217708B20030307807B50031
:100330003208B8000A30B900692130307707B700B9
:1003400030307807B6003408F70030303502031932
:10035000AD29B314B31B3315C1293408B5002030BF
:10036000B400303036020319B9293314B31BB31467
:10037000C129031D3314031DC1293508B6002030DF
:10038000B5003319C829B318CB293318CE29D12980
:100390003408B800E9203508B800E9203608B8006C
:1003A000E9203708B800E920080078080319DD299A
:1003B00077088000840AF80BD8298A110A127A2A51
:1003C000193083169900A630980090308312980057
:1003D000AF01FF30B00083161F149F141F159F112B
:1003E00007309C0083131F3083058312A001A101F5
:1003F000003083168600803087008312B0007F288B
:100400000A30B90018208C1E812A8C1E052A1A0871
:10041000B1003108503C03191C2A3108493C03192A
:100420001C2A3108443C03191C2A26302F0784005B
:10043000831331088000AF0A3108443C031D812A30
:10044000AF0130302602B300B4000A30B500B2204C
:10045000303027027807AC0030302802B300B400F7
:100460000A30B500B220303029027807B1003030B0
:100470002A02B300B4000A30B500B22030302B029B
:100480007807AE000130B900BA00D7200C3003174E
:100490008D0000308F00031005300313B2001521CA
:1004A0002C08B2001830B3007E210F3003178D00E6
:1004B00000308F00031406300313B20015213108F9
:1004C000B2001830B3007E21133003178D000030C6
:1004D0008F00031405300313B20015212E08B2005B
:1004E0001830B3007E21263084008313F7010630D4
:1004F000F800D5290830B200FA30B9001820B20B44
:060500007C2A032A6300BF
:02400E00393F38
:00000001FF
;PIC16F877A
;CRC=762F  CREATED="18-Dec-22 21:42"
