:1000000000308A0019280000213084008313000882
:10001000031918280130F800F701F70B0D28F80B29
:100020000C284A30F700F70B13281628800B0A28F3
:100030000800193083169900A6309800903083127A
:10004000980083161F149F141F159F1107309C00E2
:1000500083131F30830564308312A10004203230E3
:100060000C1E302899006430A100042034300C1E8E
:10007000372899006430A100042050300C1E3E281F
:1000800099006430A100042036300C1E45289900E8
:100090006430A100042030300C1E4C2899006430DC
:1000A000A100042049300C1E532899006430A1009F
:1000B000042036300C1E5A2899006430A100042018
:1000C00034300C1E612899006430A10004204430B3
:1000D0000C1E682899006430A100042083162B2888
:0200E0006300BB
:02400E00393F38
:00000001FF
;PIC16F877A
;CRC=7ABC  CREATED="18-Dec-22 21:36"
