:1000000002308A00E22A00000A108A100A118207D0
:1000100028340C3401340634D32C4E2A412CA0222F
:1000200052294F2900003630840083130008031939
:1000300027280130F800F701F70B1C28F80B1B28C4
:100040004A30F700F70B22282528800B19280800D2
:100050003D0EF039F7000F300605770486000000EA
:1000600006143228061008000608F700060E0F399D
:10007000F80008000F3083160605F038860083125A
:10008000061500000614000034207808BD00061094
:1000900000000614000034207808BC0006100F3061
:1000A00083160605860083123D0EF700F030F70533
:1000B00077083C04F8000800831606108610061125
:1000C000831286103A207808BC00BC1B62283A1CB8
:1000D00086103A18861400000611000006103B0E28
:1000E000BC000F30BC053C08BD0028203B080F3980
:1000F000BC00BD00282008000F30831606058600CE
:1001000006108610061183128610061106100F3095
:10011000B60013200130AF002F08033C031C9828C1
:100120000330BD0028200530B6001320AF0A8C280C
:100130000230BD0028200530B6001320AF012F0883
:10014000033C031CAC282F080420B000BA0130087F
:10015000BB005C20AF0A9F288A110A12042B370BC0
:10016000B228B5284030B800B628B80101303602B0
:10017000B80738088038B900BA013908BB005C20DC
:1001800008003508073A0319CF280B3A0319D42879
:10019000063A0319DC28023A0319E228E72801305D
:1001A000B600B700AF20EC28BA010130BB005C20DC
:1001B0000230B6001320EC280130B6000230B70040
:1001C000AF20EC28BA011030BB005C20EC280130D5
:1001D000BA003508BB005C20080083168601831234
:1001E00086018316081083120814831608168312DA
:1001F000081E02296430B60013203130B500C1203A
:100200003130AF00831688168312881E0F296430A0
:10021000B60013203230B500C1203230AF00831653
:1002200008178312081F1C296430B60013203330CE
:10023000B500C1203330AF00831688178312881FA2
:1002400029296430B60013204130B500C120413067
:10025000AF0083160810831208106430B600132014
:100260008316881083128814831608168312081EBA
:1002700041296430B60013203430B500C120343039
:10028000AF00831688168312881E4E296430B6008C
:1002900013203530B500C1203530AF008316081764
:1002A0008312081F5B296430B60013203630B50076
:1002B000C1203630AF00831688178312881F682943
:1002C0006430B60013204230B500C1204230AF0088
:1002D00083168810831288106430B60013208316AA
:1002E000081183120815831608168312081E802928
:1002F0006430B60013203730B500C1203730AF006E
:10030000831688168312881E8D296430B600132048
:100310003830B500C1203830AF008316081783127B
:10032000081F9A296430B60013203930B500C12067
:100330003930AF00831688178312881FA7296430CD
:10034000B60013204330B500C1204330AF00831600
:100350000811831208116430B60013208316881127
:1003600083128815831608168312081EBF2964306D
:10037000B60013202A30B500C1202A30AF00831602
:1003800088168312881ECC296430B60013203030C2
:10039000B500C1203030AF00831608178312081F44
:1003A000D9296430B60013202330B500C120233092
:1003B000AF00831688178312881FE6296430B600C1
:1003C00013204430B500C1204430AF00831688119B
:1003D000831288116430B60013202F08F80008003B
:1003E0002F08B6003008B700AF203A207808B200D6
:1003F000B21BF52986143A207808B100861031081E
:10040000F80008000B08AF008B13831603178C1736
:100410000C140000000083120C087F390319492ACC
:100420000313B00003170D080313B10003170F08DF
:100430000313B2003008B500C120310803178D0046
:100440000313320803178F0083168C170C14000057
:10045000000083120C0D0E0D7F390319492A031376
:10046000B00003170D080313B10003170F0803139F
:10047000B2003008B500C120310803178D00031306
:10048000320803178F008D0A03198F0A0313052AF8
:1004900003170313AF1B8B178A110A12622BF70184
:1004A000F801300803103118F707F70CF80CB118F1
:1004B000F707F70CF80C3119F707F70CF80CB1191E
:1004C000F707F70CF80C311AF707F70CF80CB11A0C
:1004D000F707F70CF80C311BF707F70CF80CB11BFA
:1004E000F707F70CF80C08003608F8013502031876
:1004F0007C2A3508F700882AF7010830B700B50DC7
:10050000F70D360877020318F700F80DB70B7F2AAE
:1005100008002030301E3030B1002F08F700AF1F28
:10052000992AF709F70A7708AF002D30B100B01704
:1005300030142F08B5006430B60074227708AF007D
:1005400030307807B2002F08B5000A30B6007422A8
:1005500030307707B40030307807B3003108F70047
:10056000303032020319B82AB014B01B3015CC2A2F
:100570003108B2002030B100303033020319C42AF0
:100580003014B01BB014CC2A031D3014031DCC2A28
:100590003208B3002030B2003019D32AB018D62A5E
:1005A0003018D92ADC2A3108B500C1203208B5003C
:1005B000C1203308B500C1203408B500C1208A111C
:1005C0000A128E2B83161F149F141F159F110730BC
:1005D0009C0083131F3083058312A001A1018316A1
:1005E00009128312900183161F149F141F159F1167
:1005F00083121F10F03097059D050030831686008A
:10060000F030880083127C286430B6001320A601E5
:10061000A701A801ED207808233C0319112BED2038
:100620000A2B0130AF00B000F0217808A9000A3091
:10063000B60013200230AF000130B000F02178087E
:10064000AA000A30B60013200330AF000130B0001A
:10065000F0217808AB000A30B60013200430AF0058
:100660000130B000F0217808AC000A30B600132049
:100670000530AF000130B000F0217808AD000A303D
:10068000B60013200630AF000130B000F02178082A
:10069000AE000A30B60013200C30B500C120013086
:1006A000B600B700AF202B082A3C031D5B2B2E0899
:1006B000233C03196E2B0C3003178D0000308F0084
:1006C0000313022A0430AF00FA30B6001320AF0B38
:1006D000642B0C30B500C120072B892B3030290248
:1006E000AF000A30B0002F08B1004F2230302A028C
:1006F0007807A70030302C02AF000A30B0002F0876
:10070000B1004F2230302D027807A80028082707B3
:10071000A6002608AF001830B000892A0C30AF00C0
:10072000FA30B6001320AF0B902B0C30B500C1206F
:0A0730001430B6001320072B6300FD
:02400E00393F38
:00000001FF
;PIC16F877A
;CRC=946A  CREATED="09-Dec-22 21:17"
